:1000000047C061C060C05FC05EC05DC05CC05BC017
:100010005AC0E4C658C04AC972C955C054C053C07A
:1000200052C051C050C0036EDB363D9A9999993D3C
:10003000ABAAAA2A3E000000803F084AD73B3BCE2D
:10004000016E84BCBFFDC12F3D6C74319ABD5683D7
:100050003DDA3D00C77F11BED9E4BB4C3E916BAA8F
:10006000AABE000000803F072C7AA5BA6CC590DAC2
:100070003B9365FC8BBC53F810FD3C5692834DBD01
:10008000879D3AB63DCBC9BF5BBE73DA0FC93F004F
:1000900011241FBECFE5D4E0DEBFCDBF10E0A0E647
:1000A000B0E0E0ECF9E102C005900D92A436B10792
:1000B000D9F720E0A4E6B0E001C01D92AF3CB20742
:1000C000E1F702D07BCC9CCFCF93DF93CDB7DEB7E7
:1000D0006C970FB6F894DEBF0FBECDBF81E087BB33
:1000E00088B3816088BB80E090E0A0E8BFE38983AB
:1000F0009A83AB83BC831D821E821F821886198659
:100100001A861B861C861D861E861F86188A198ADB
:100110001A8A1B8A1C8A1D8A1E8A1F8A188E198EAB
:100120001A8E1B8E1C8E80E090E010D978943CD102
:100130002FEF80E792E0215080409040E1F700C02F
:1001400000009E01235F3F4FAE01475F5F4FBE013E
:100150006B5F7F4FCE01019664D6AE01475E5F4F65
:10016000BE016B5E7F4FCE01419698D68FE39CE92E
:100170000197F1F700C000008989FCD88A89FAD874
:100180008B89F8D88C89F6D88D89F4D88E89F2D8E5
:100190008F89F0D8888DEED8898DECD88A8DEAD8F1
:1001A0008B8DE8D88C8DE6D8CCCFFF920F931F9320
:1001B000CF93DF93662349F18A01D62FC82F80EDB4
:1001C000A2D78C2F0CD885E38A95F1F7000081ED3A
:1001D0009AD7F12CC0E015C0F3942C2F30E08D2F6E
:1001E00090E001972817390731F440D8F801EC0F57
:1001F000F11D808305C01AD8F801EC0FF11D808332
:10020000CF5FCD1748F3D4D701C0F12C8F2DDF91EC
:10021000CF911F910F91FF900895AB0161E0C5DF71
:1002200008950F931F93CF93DF93662391F08A0174
:10023000D62FC82F80ED67D78C2FD1D7C0E006C04E
:10024000F801EC0FF11D8081CAD7CF5FCD17C0F345
:10025000AFD7DF91CF911F910F910895CF93DF9387
:100260001F92CDB7DEB76983AE014F5F5F4F61E08C
:10027000D8DF0F90DF91CF910895FF920F931F93D6
:10028000CF93DF931F92CDB7DEB7F62E8A01BE0162
:100290006F5F7F4FC2DF21E030E002C0220F331FCB
:1002A000FA94E2F799812923F80120830F90DF91D6
:1002B000CF911F910F91FF900895EF92FF920F93AE
:1002C0001F93CF93DF931F92CDB7DEB7442381F105
:1002D000E22E142F062FF82E1982BE016F5F7F4F7A
:1002E0009CDF882329F181E090E0012E02C0880F75
:1002F000991F0A94E2F70197402F50E0411B5109E2
:100300004F5F5F4F042E02C0880F991F0A94E2F7D7
:100310002E2D30E002C0220F331F4A95E2F728232A
:10032000809569818623622F682B69838F2D96DFE4
:100330000F90DF91CF911F910F91FF90EF90089553
:10034000FF920F931F93CF93DF931F92CDB7DEB72A
:10035000182F062FF42EBE016F5F7F4F5EDFFF2048
:1003600051F061E070E002C0660F771F0A95E2F776
:100370008981682B0AC061E070E002C0660F771FB8
:100380000A95E2F76095898168236983812F66DF8A
:100390000F90DF91CF911F910F91FF90089540E052
:1003A00066E08BE6CDDF0895AAD625E32A95F1F71E
:1003B00000008FEF91EE24E0815090402040E1F763
:1003C00000C00000ECDF8FE39CE90197F1F700C06B
:1003D000000021E043E062E08BE66FDF23E043E0D2
:1003E00062E08AE16ADF64E089E138DF23E042E02D
:1003F00064E08BE162DF20E042E064E08CE15DDFFD
:1004000083B7856083BF89B7816089BF08954F92A4
:100410005F926F927F928F929F92AF92BF92CF9294
:10042000DF92EF92FF920F931F93CF93DF93CDB79D
:10043000DEB76C970FB6F894DEBF0FBECDBF2B01B1
:100440003C012D873E874F87588BE98AFA8A0B8BB0
:100450001C8B20E030E0A901C601B5017CD88111D8
:1004600015C020E030E0A9016FA578A989A99AA953
:1004700072D881110BC020E030E0A9016BA97CA9E2
:100480008DA99EA968D8882309F4CFC1A60195013A
:10049000C601B501D6D969877A878B879C872FA536
:1004A00038A949A95AA9CA01B901CBD99B01AC0104
:1004B00069857A858B859C8571D769877A878B87D3
:1004C0009C872BA93CA94DA95EA9CA01B901B9D93C
:1004D0009B01AC0169857A858B859C855FD718DA8D
:1004E00069877A878B879C879B01AC01C601B50120
:1004F00036D8698F7A8F8B8F9C8F29853A854B856B
:100500005C856FA578A989A99AA929D869837A8376
:100510008B839C8329853A854B855C856BA97CA957
:100520008DA99EA91CD84B015C0160917800709147
:10053000790080917A0090917B0020917000309139
:10054000710040917200509173007BD96B017C0166
:1005500060916000709161008091620090916300F1
:100560002091740030917500409176005091770091
:1005700068D99B01AC01C701B6010FD76D837E839B
:100580008F83988760916000709161008091620014
:1005900090916300209178003091790040917A0029
:1005A00050917B004ED96B017C0160917400709179
:1005B00075008091760090917700209170003091C5
:1005C000710040917200509173003BD99B01AC01C6
:1005D000C701B601E3D669877A878B879C876091CC
:1005E00060007091610080916200909163002091A1
:1005F000600030916100409162005091630021D908
:1006000020E030E040E05FE3C8D66B017C01609100
:100610007000709171008091720090917300209130
:10062000700030917100409172005091730009D9AF
:100630009B01AC01C701B601B1D66B017C019B01E6
:10064000AC0169817A818B819C81FBD86D8B7E8B1B
:100650008F8B988F29853A854B855C85C501B401C0
:10066000F0D89B01AC016D897E898F89988D95D6D4
:100670006D8B7E8B8F8B988F2D813E814F8158851E
:10068000C501B401DED84B015C01A7019601698D5B
:100690007A8D8B8D9C8DD5D89B01AC01C501B401A1
:1006A0007CD64B015C0129853A854B855C85698D3B
:1006B0007A8D8B8D9C8DC5D86B017C012D813E81FF
:1006C0004F81588569817A818B819C81BAD89B0141
:1006D000AC01C701B60161D66B017C012DEC3CEC8D
:1006E0004CE45EE36D897E898F89988DAAD82AE8CB
:1006F0003BE446E85CE3A5D820916C0030916D00A6
:1007000040916E0050916F0049D660936C007093D9
:100710006D0080936E0090936F002DEC3CEC4CE4E8
:100720005EE3C501B4018DD82AE83BE446E85CE30A
:1007300088D8209168003091690040916A005091FA
:100740006B002CD6609368007093690080936A00F8
:1007500090936B002DEC3CEC4CE45EE3C701B601DA
:1007600070D82AE83BE446E85CE36BD8209164004B
:100770003091650040916600509167000FD66093FC
:1007800064007093650080936600909367002091E9
:100790006C0030916D0040916E0050916F00C3016C
:1007A000B201FCD52B013C01209168003091690019
:1007B00040916A0050916B006D857E858F85988988
:1007C000EDD569837A838B839C832091640030917B
:1007D0006500409166005091670069897A898B892C
:1007E0009C89DCD56D837E838F839887A3019201DA
:1007F0006D897E898F89988DD1D52B013C01298106
:100800003A814B815C81C501B401C8D56D877E8773
:100810008F87988B2D813E814F815885C701B60106
:10082000BDD5698B7A8B8B8B9C8B2AE83BE446E0A9
:100830005CE3C301B20105D869837A838B839C830F
:100840002AE83BE446E05CE36D857E858F859889E8
:10085000F8D76D837E838F8398872AE83BE446E050
:100860005CE369897A898B899C89EBD76D877E8760
:100870008F87988B8091600090916100A0916200B9
:10088000B0916300898B9A8BAB8BBC8B8090780086
:1008900090907900A0907A00B0907B00C090740096
:1008A000D0907500E0907600F0907700A50194015B
:1008B000505869817A818B819C81C3D72B013C017F
:1008C000A70196016D817E818F819885BAD79B01A2
:1008D000AC01C301B20161D52B013C012091700034
:1008E0003091710040917200509173006D857E854A
:1008F0008F859889A6D79B01AC01C301B2014DD564
:10090000209160003091610040916200509163003D
:1009100045D560936000709361008093620090936E
:10092000630029893A894B895C8969817A818B8145
:100930009C8187D72B013C01A70196016D857E859F
:100940008F8598897ED79B01AC01C301B20126D562
:100950002B013C0120917000309171004091720098
:10096000509173006D817E818F8198856AD79B013C
:10097000AC01C301B20111D520917800309179000A
:1009800040917A0050917B0009D560937800709374
:10099000790080937A0090937B0029893A894B896A
:1009A0005C896D817E818F8198854BD72B013C01BD
:1009B000A50194016D857E858F85988942D79B011D
:1009C000AC01C301B201E9D42B013C0120917000BC
:1009D00030917100409172005091730069817A8169
:1009E0008B819C812ED79B01AC01C301B201D6D46F
:1009F00020917400309175004091760050917700FD
:100A0000CDD46093740070937500809376009093BA
:100A1000770029893A894B895C896D857E858F8528
:100A200098890FD72B013C01A50194016D817E812E
:100A30008F81988506D79B01AC01C301B201AED46A
:100A40004B015C01A701960169817A818B819C81B0
:100A5000F8D69B01AC01C501B4019FD42091700070
:100A600030917100409172005091730097D460935F
:100A70007000709371008093720090937300609186
:100A800060007091610080916200909163002091FC
:100A90006000309161004091620050916300D1D6B6
:100AA0006B017C01609178007091790080917A00EF
:100AB00090917B00209178003091790040917A00EC
:100AC00050917B00BED69B01AC01C701B60166D434
:100AD0006B017C01609174007091750080917600CB
:100AE00090917700209174003091750040917600CC
:100AF00050917700A6D69B01AC01C701B6014ED438
:100B00006B017C01609170007091710080917200A6
:100B100090917300209170003091710040917200AB
:100B2000509173008ED69B01AC01C701B60136D43B
:100B3000EFD66B017C016091600070916100809143
:100B4000620090916300A701960109D5609360004F
:100B500070936100809362009093630060917800CD
:100B60007091790080917A0090917B00A7019601A5
:100B7000F6D4609378007093790080937A00909314
:100B80007B00609174007091750080917600909167
:100B90007700A7019601E3D4609374007093750009
:100BA000809376009093770060917000709171004F
:100BB0008091720090917300A7019601D0D4609348
:100BC00070007093710080937200909373006C9624
:100BD0000FB6F894DEBF0FBECDBFDF91CF911F914E
:100BE0000F91FF90EF90DF90CF90BF90AF909F90CC
:100BF0008F907F906F905F904F9008952F923F92CB
:100C00004F925F926F927F928F929F92AF92BF921C
:100C1000CF92DF92EF92FF920F931F93CF93DF93C8
:100C2000CDB7DEB72A970FB6F894DEBF0FBECDBFA3
:100C300041EC50E060E08AE320DB8091C10081114B
:100C400005C025E32A95F1F70000F2CF41EC50E012
:100C50006EE08BE3AADAE1ECF0E0608170E0762FE1
:100C600066278181682B4280512C542C4424838137
:100C7000482A6480712C762C66248581682A308508
:100C8000832F90E0382F22278185282B3A832983D0
:100C9000028510E0102F00278385082BE484F12CB7
:100CA000FE2CEE248585E82A072E000C880B990B74
:100CB000C0D420E030E040E858E3C3D55B016C01CC
:100CC000B201550C880B990BB4D420E030E040E819
:100CD00058E3B7D5562E472E89879A87B301770CEC
:100CE000880B990BA6D420E030E040E858E3A9D562
:100CF000262E372E882E992E69817A81665D7F4F48
:100D0000072E000C880B990B94D423E333E343E8BC
:100D100051E425D424E33AEF4EE85CE392D56983AD
:100D20007A838B839C83B80169507109072E000C6C
:100D3000880B990B7ED423E333E343E851E40FD4CB
:100D400024E33AEF4EE85CE37CD56D837E838F83AA
:100D50009887B701635E7F4F072E000C880B990BB5
:100D600068D423E333E343E851E4F9D324E33AEFCF
:100D70004EE85CE366D59F928F923F922F923A8520
:100D80003F9329852F934F925F927B018C012D8198
:100D90003E814F81588569817A818B819C8137DBC7
:100DA0000FB6F894DEBF0FBECDBF2A960FB6F894EB
:100DB000DEBF0FBECDBFDF91CF911F910F91FF908E
:100DC000EF90DF90CF90BF90AF909F908F907F90EB
:100DD0006F905F904F903F902F9008951F920F92C9
:100DE0000FB60F9211242F933F934F935F936F93FE
:100DF0007F938F939F93AF93BF93EF93FF93FEDE09
:100E0000FF91EF91BF91AF919F918F917F916F91E2
:100E10005F914F913F912F910F900FBE0F901F90B8
:100E20001895CF92DF92EF92FF92C0906000D09021
:100E30006100E0906200F0906300FC01C082D1820A
:100E4000E282F3828091780090917900A0917A00FB
:100E5000B0917B00FB0180839183A283B383809157
:100E6000740090917500A0917600B0917700FA011E
:100E700080839183A283B3838091700090917100ED
:100E8000A0917200B0917300F90180839183A283D5
:100E9000B383FF90EF90DF90CF9008954F925F92D1
:100EA0006F927F928F929F92AF92BF92EF92FF923A
:100EB0000F931F93CF93DF93EC018B017A01609125
:100EC00060007091610080916200909163009B01CD
:100ED000AC0164D2209160003091610040916200C9
:100EE00050916300AED44B015C0160917800709129
:100EF000790080917A0090917B009B01AC014ED2E9
:100F0000209178003091790040917A0050917B00D7
:100F100098D49B01AC01C501B40140D220E030E07F
:100F200040E85FE33AD24B015C0160917800709138
:100F3000790080917A0090917B009B01AC012ED2C8
:100F400020917400309175004091760050917700A7
:100F500078D42B013C016091600070916100809118
:100F60006200909163009B01AC0118D22091700047
:100F700030917100409172005091730062D49B01D6
:100F8000AC01C301B20109D2A501940191D2F701CC
:100F9000608371838283938360917800709179007C
:100FA00080917A0090917B009B01AC01F7D1209158
:100FB000700030917100409172005091730041D4E3
:100FC0004B015C0160916000709161008091620052
:100FD000909163009B01AC01E1D1209174003091AC
:100FE000750040917600509177002BD49B01AC01A5
:100FF000C501B401D3D136D2DC01CB01B058F80120
:1010000080839183A283B3836091600070916100BB
:1010100080916200909163009B01AC01BFD120914F
:10102000600030916100409162005091630009D4EA
:101030004B015C01609170007091710080917200B1
:10104000909173009B01AC01A9D120917000309167
:1010500071004091720050917300F3D39B01AC0179
:10106000C501B4019BD120E030E040E85FE395D1B9
:101070004B015C0160917400709175008091760065
:10108000909177009B01AC0189D120917000309143
:1010900071004091720050917300D3D32B013C0139
:1010A0006091600070916100809162009091630096
:1010B0009B01AC0173D1209178003091790040916F
:1010C0007A0050917B00BDD39B01AC01C301B201FA
:1010D00064D1A5019401ECD1688379838A839B83D1
:1010E000DF91CF911F910F91FF90EF90BF90AF9044
:1010F0009F908F907F906F905F904F90089511B860
:1011000088E480B908950F931F9394EA96BF4FEF38
:1011100050E060E070E002C0B901A80106B607FC2B
:101120000CC08A019B010150110921093109452B8D
:10113000462B472B89F7B901A801452B462B472B96
:1011400059F191B1987F983011F0903139F583B908
:1011500084E886BF8FEF90E0A0E0B0E002C0DB0142
:10116000CA0106B607FC0CC0AC01BD0141505109D3
:1011700061097109892B8A2B8B2B89F7DB01CA0145
:10118000892B8A2B8B2B61F081B1887F883151F0BC
:10119000803451F480E009C081E007C081E005C0DF
:1011A00081E003C080E001C081E01F910F910895AC
:1011B00084E986BF8FEF90E0A0E0B0E002C0DB01E1
:1011C000CA0106B604FE0AC0AC01BD014150510976
:1011D00061097109892B8A2B8B2B89F7089583B9B3
:1011E00084E886BF8FEF90E0A0E0B0E002C0DB01B2
:1011F000CA0106B607FC0CC0AC01BD014150510943
:1012000061097109892B8A2B8B2B89F7DB01CA01B4
:10121000892B8A2B8B2B31F081B1887F883221F08A
:1012200081E0089581E0089580E0089584EC86BF10
:101230008FEF90E0A0E0B0E002C0DB01CA0106B68B
:1012400007FC0CC0AC01BD01415051096109710995
:10125000892B8A2B8B2B89F7DB01CA01892B8A2BDF
:101260008B2B11F083B1089580E0089584E886BF48
:101270008FEF90E0A0E0B0E002C0DB01CA0106B64B
:1012800007FC0CC0AC01BD01415051096109710955
:10129000892B8A2B8B2B89F7DB01CA01892B8A2B9F
:1012A0008B2B11F083B1089580E008951F920F9267
:1012B0000FB60F9211242F938F939F93EF93FF9369
:1012C0008BB12CB18871E0917E00EF5FEF7190914E
:1012D0007D00E91739F0E0937E00F0E0EF57FF4F13
:1012E000208301C082E080937C00FF91EF919F9169
:1012F0008F912F910F900FBE0F901F9018951F92F6
:101300000F920FB60F9211248F939F93EF93FF9339
:101310009091800080917F00981761F0E0917F00AC
:10132000EF5FEF71E0937F00F0E0EF55FF4F8081BA
:101330008CB903C08AB18F7D8AB9FF91EF919F91DB
:101340008F910F900FBE0F901F90189510928000F4
:1013500010927F0010927E0010927D0099231CF461
:1013600022E02BB99F7790BD89B988E98AB986E8D0
:1013700080BD0895209180002F5F2F7190917F0094
:101380002917E1F3E22FF0E0EF55FF4F8083209320
:1013900080008AB180628AB908955058BB27AA2775
:1013A0000ED00EC2FFD130F004D220F031F49F3FB6
:1013B00011F41EF4BEC10EF4E095E7FBB4C1E92FB1
:1013C00010D280F3BA17620773078407950718F0E5
:1013D00071F49EF528C20EF4E0950B2EBA2FA02DC5
:1013E0000B01B90190010C01CA01A0011124FF27D2
:1013F000591B99F0593F50F4503E68F11A16F040CD
:10140000A22F232F342F4427585FF3CF46953795CB
:101410002795A795F0405395C9F77EF41F16BA0B90
:10142000620B730B840BBAF09150A1F0FF0FBB1F3E
:10143000661F771F881FC2F70EC0BA0F621F731F87
:10144000841F48F4879577956795B795F7959E3FE4
:1014500008F0B3CF9395880F08F09927EE0F979572
:10146000879508959F939F77EEE389379E0720F431
:10147000E6E2F0E086D109C017D19058A2EA2AED41
:101480003FE049EC5FE39BDF9BD10F9007FC905856
:10149000089588D158F080E891E009F49EEF89D151
:1014A00028F040E851E059F45EEF09C042C1BBC1E9
:1014B000E92FE07896D168F3092E052AC1F32617A3
:1014C00037074807590738F00E2E07F8E02569F06E
:1014D000E025E0640AC0EF6307F8009407FADB0137
:1014E000B9019D01DC01CA01AD01EF9347D068D17C
:1014F0000AD05F91552331F02BED3FE049E450FDD8
:1015000049EC4CCF0895DF93DD27B92FBF7740E832
:101510005FE31616170648075B0710F4D92F8AD128
:101520009F938F937F936F9331D2EAE3F0E004D1DE
:1015300047D12F913F914F915F918FD1DD2349F09A
:101540009058A2EA2AED3FE049EC5FE3D0785D27AE
:1015500036DFDF9135C1C3D008F481E008950CD0A7
:101560002FC127D140F01ED130F021F45F3F19F098
:10157000DAC0511159C1DDC034D198F39923C9F3B0
:101580005523B1F3951B550BBB27AA276217730789
:10159000840738F09F5F5F4F220F331F441FAA1F3D
:1015A000A9F333D00E2E3AF0E0E830D091505040FD
:1015B000E695001CCAF729D0FE2F27D0660F771FAB
:1015C000881FBB1F261737074807AB07B0E809F08D
:1015D000BB0B802DBF01FF2793585F4F2AF09E3F22
:1015E000510568F0A0C020C15F3FECF3983EDCF3EA
:1015F000869577956795B795F7959F5FC9F7880F9B
:10160000911D9695879597F90895E1E0660F771FEC
:10161000881FBB1F621773078407BA0720F0621B7D
:10162000730B840BBA0BEE1F88F7E0950895E894CE
:1016300009C097FB3EF490958095709561957F4F1A
:101640008F4F9F4F9923A9F0F92F96E9BB279395C8
:10165000F695879577956795B795F111F8CFFAF4D8
:10166000BB0F11F460FF1BC06F5F7F4F8F4F9F4F09
:1016700016C0882311F096E911C0772321F09EE867
:10168000872F762F05C0662371F096E8862F70E0CD
:1016900060E02AF09A95660F771F881FDAF7880FA7
:1016A0009695879597F90895DF93CF931F930F939E
:1016B0008B01EC01E7E6F0E03FD082D09801AE016B
:1016C0008B01EC0160E070E080E89FE366DE20D1F2
:1016D0009801AE010F911F91CF91DF91BEC0990F7C
:1016E0000008550FAA0BE0E8FEEF16161706E807EC
:1016F000F907C0F012161306E407F50798F0621B0D
:10170000730B840B950B39F40A2661F0232B242BE1
:10171000252B21F408950A2609F4A140A6958FEF00
:10172000811D811D089597F99F6780E870E060E052
:1017300008959FEF80EC0895DF93CF931F930F934D
:10174000FF92EF92DF927B018C01689405C0DA2E44
:10175000EF0183D0FE01E894A59125913591459143
:101760005591AEF3EF012BDEFE019701A801DA944B
:1017700079F7DF90EF90FF900F911F91CF91DF915C
:1017800008959F938F937F936F93FF93EF939B01A4
:10179000AC0157D0EF91FF91CFDF2F913F914F9147
:1017A0005F914FC000240A94161617061806090602
:1017B000089500240A9412161306140605060895C7
:1017C000092E0394000C11F4882352F0BB0F40F44F
:1017D000BF2B11F460FF04C06F5F7F4F8F4F9F4F8F
:1017E000089557FD9058440F551F59F05F3F71F011
:1017F0004795880F97FB991F61F09F3F79F0879578
:101800000895121613061406551FF2CF4695F1DF00
:1018100008C0161617061806991FF1CF8695710590
:10182000610508940895E894BB2766277727CB01C4
:1018300097F908959B01AC0160E070E080E89FE3B8
:101840008ECE0BD0BDCFAEDF28F0B3DF18F09523DE
:1018500009F069CF6ECF1124E7CFC3DFA0F3959FC6
:10186000D1F3950F50E0551F629FF001729FBB2787
:10187000F00DB11D639FAA27F00DB11DAA1F649F33
:101880006627B00DA11D661F829F2227B00DA11DE6
:10189000621F739FB00DA11D621F839FA00D611D6C
:1018A000221F749F3327A00D611D231F849F600D8D
:1018B000211D822F762F6A2F11249F5750408AF0C6
:1018C000E1F088234AF0EE0FFF1FBB1F661F771F52
:1018D000881F91505040A9F79E3F510570F023CFCB
:1018E000A3CF5F3FECF3983EDCF386957795679541
:1018F000B795F795E7959F5FC1F7FE2B880F911D70
:101900009695879597F9089511F40EF412CF41C07A
:1019100070DFD0F39923D9F3CEF39F57550B87FF90
:1019200046D00024A0E640EA90018058569597954D
:1019300028F4805C660F771F881F20F02617370772
:10194000480730F4621B730B840B202931294A2B82
:10195000A69517940794202531254A2758F7660F36
:10196000771F881F20F026173707480730F4620BCF
:10197000730B840B200D311D411DA09581F7B9011A
:10198000842F9158880F9695879508959B01AC01F7
:1019900058CF9F3F31F0915020F487957795679508
:1019A000B795880F911D9695879597F90895915051
:1019B0005040660F771F881FD2F70895F894FFCF25
:0419C0000000803F64
:00000001FF
